{
  "_format": "hh-sol-artifact-1",
  "contractName": "EmployeeDetails",
  "sourceName": "contracts/EmployeeDetails.sol",
  "abi": [
    {
      "anonymous": false,
      "inputs": [
        {
          "indexed": true,
          "internalType": "address",
          "name": "walletAddress",
          "type": "address"
        },
        {
          "indexed": false,
          "internalType": "string",
          "name": "name",
          "type": "string"
        },
        {
          "indexed": false,
          "internalType": "string",
          "name": "paymentMethod",
          "type": "string"
        },
        {
          "indexed": false,
          "internalType": "uint256",
          "name": "salary",
          "type": "uint256"
        },
        {
          "indexed": false,
          "internalType": "uint256",
          "name": "dateCaptured",
          "type": "uint256"
        }
      ],
      "name": "EmployeeDetailsCaptured",
      "type": "event"
    },
    {
      "anonymous": false,
      "inputs": [
        {
          "indexed": true,
          "internalType": "address",
          "name": "walletAddress",
          "type": "address"
        }
      ],
      "name": "EmployeeDetailsDeleted",
      "type": "event"
    },
    {
      "anonymous": false,
      "inputs": [
        {
          "indexed": true,
          "internalType": "address",
          "name": "walletAddress",
          "type": "address"
        },
        {
          "indexed": false,
          "internalType": "string",
          "name": "name",
          "type": "string"
        },
        {
          "indexed": false,
          "internalType": "string",
          "name": "paymentMethod",
          "type": "string"
        },
        {
          "indexed": false,
          "internalType": "uint256",
          "name": "salary",
          "type": "uint256"
        }
      ],
      "name": "EmployeeDetailsUpdated",
      "type": "event"
    },
    {
      "inputs": [
        {
          "internalType": "string",
          "name": "_name",
          "type": "string"
        },
        {
          "internalType": "address",
          "name": "_walletAddress",
          "type": "address"
        },
        {
          "internalType": "string",
          "name": "_paymentMethod",
          "type": "string"
        },
        {
          "internalType": "uint256",
          "name": "_salary",
          "type": "uint256"
        }
      ],
      "name": "captureEmployeeDetails",
      "outputs": [],
      "stateMutability": "nonpayable",
      "type": "function"
    },
    {
      "inputs": [
        {
          "internalType": "address",
          "name": "_walletAddress",
          "type": "address"
        }
      ],
      "name": "deleteEmployeeDetails",
      "outputs": [],
      "stateMutability": "nonpayable",
      "type": "function"
    },
    {
      "inputs": [
        {
          "internalType": "address",
          "name": "",
          "type": "address"
        }
      ],
      "name": "employees",
      "outputs": [
        {
          "internalType": "string",
          "name": "name",
          "type": "string"
        },
        {
          "internalType": "address",
          "name": "walletAddress",
          "type": "address"
        },
        {
          "internalType": "string",
          "name": "paymentMethod",
          "type": "string"
        },
        {
          "internalType": "uint256",
          "name": "salary",
          "type": "uint256"
        },
        {
          "internalType": "uint256",
          "name": "dateCaptured",
          "type": "uint256"
        }
      ],
      "stateMutability": "view",
      "type": "function"
    },
    {
      "inputs": [
        {
          "internalType": "address",
          "name": "_walletAddress",
          "type": "address"
        }
      ],
      "name": "getEmployeeDetails",
      "outputs": [
        {
          "internalType": "string",
          "name": "",
          "type": "string"
        },
        {
          "internalType": "address",
          "name": "",
          "type": "address"
        },
        {
          "internalType": "string",
          "name": "",
          "type": "string"
        },
        {
          "internalType": "uint256",
          "name": "",
          "type": "uint256"
        },
        {
          "internalType": "uint256",
          "name": "",
          "type": "uint256"
        }
      ],
      "stateMutability": "view",
      "type": "function"
    },
    {
      "inputs": [
        {
          "internalType": "address",
          "name": "_walletAddress",
          "type": "address"
        },
        {
          "internalType": "string",
          "name": "_name",
          "type": "string"
        },
        {
          "internalType": "string",
          "name": "_paymentMethod",
          "type": "string"
        },
        {
          "internalType": "uint256",
          "name": "_salary",
          "type": "uint256"
        }
      ],
      "name": "updateEmployeeDetails",
      "outputs": [],
      "stateMutability": "nonpayable",
      "type": "function"
    }
  ],
  "bytecode": "0x608060405234801561001057600080fd5b506113ad806100206000396000f3fe608060405234801561001057600080fd5b50600436106100575760003560e01c80631caafcf11461005c5780631ecf0dfe14610090578063655c5823146100ac57806394f1f6d1146100c8578063d0678947146100e4575b600080fd5b61007660048036038101906100719190610b44565b610118565b604051610087959493929190610c29565b60405180910390f35b6100aa60048036038101906100a59190610deb565b610397565b005b6100c660048036038101906100c19190610b44565b610530565b005b6100e260048036038101906100dd9190610e8a565b6106df565b005b6100fe60048036038101906100f99190610b44565b61090f565b60405161010f959493929190610c29565b60405180910390f35b606060006060600080858073ffffffffffffffffffffffffffffffffffffffff166000808373ffffffffffffffffffffffffffffffffffffffff1673ffffffffffffffffffffffffffffffffffffffff16815260200190815260200160002060010160009054906101000a900473ffffffffffffffffffffffffffffffffffffffff1673ffffffffffffffffffffffffffffffffffffffff16146101f1576040517f08c379a00000000000000000000000000000000000000000000000000000000081526004016101e890610f75565b60405180910390fd5b60008060008973ffffffffffffffffffffffffffffffffffffffff1673ffffffffffffffffffffffffffffffffffffffff1681526020019081526020016000209050806000018160010160009054906101000a900473ffffffffffffffffffffffffffffffffffffffff16826002018360030154846004015484805461027690610fc4565b80601f01602080910402602001604051908101604052809291908181526020018280546102a290610fc4565b80156102ef5780601f106102c4576101008083540402835291602001916102ef565b820191906000526020600020905b8154815290600101906020018083116102d257829003601f168201915b5050505050945082805461030290610fc4565b80601f016020809104026020016040519081016040528092919081815260200182805461032e90610fc4565b801561037b5780601f106103505761010080835404028352916020019161037b565b820191906000526020600020905b81548152906001019060200180831161035e57829003601f168201915b5050505050925096509650965096509650505091939590929450565b838073ffffffffffffffffffffffffffffffffffffffff166000808373ffffffffffffffffffffffffffffffffffffffff1673ffffffffffffffffffffffffffffffffffffffff16815260200190815260200160002060010160009054906101000a900473ffffffffffffffffffffffffffffffffffffffff1673ffffffffffffffffffffffffffffffffffffffff1614610467576040517f08c379a000000000000000000000000000000000000000000000000000000000815260040161045e90610f75565b60405180910390fd5b60008060008773ffffffffffffffffffffffffffffffffffffffff1673ffffffffffffffffffffffffffffffffffffffff1681526020019081526020016000209050848160000190816104ba91906111a1565b50838160020190816104cc91906111a1565b508281600301819055508573ffffffffffffffffffffffffffffffffffffffff167ffb6139c8c65ba496efcf7e7e222bc9a9a54affd767c9abb2abfc88ca26d8ec6486868660405161052093929190611273565b60405180910390a2505050505050565b808073ffffffffffffffffffffffffffffffffffffffff166000808373ffffffffffffffffffffffffffffffffffffffff1673ffffffffffffffffffffffffffffffffffffffff16815260200190815260200160002060010160009054906101000a900473ffffffffffffffffffffffffffffffffffffffff1673ffffffffffffffffffffffffffffffffffffffff1614610600576040517f08c379a00000000000000000000000000000000000000000000000000000000081526004016105f790610f75565b60405180910390fd5b6000808373ffffffffffffffffffffffffffffffffffffffff1673ffffffffffffffffffffffffffffffffffffffff1681526020019081526020016000206000808201600061064f9190610a75565b6001820160006101000a81549073ffffffffffffffffffffffffffffffffffffffff02191690556002820160006106869190610a75565b6003820160009055600482016000905550508173ffffffffffffffffffffffffffffffffffffffff167fcd5029461ca297de51e0adb81098f41275518e50df56175648d52ce89169457160405160405180910390a25050565b828073ffffffffffffffffffffffffffffffffffffffff166000808373ffffffffffffffffffffffffffffffffffffffff1673ffffffffffffffffffffffffffffffffffffffff16815260200190815260200160002060010160009054906101000a900473ffffffffffffffffffffffffffffffffffffffff1673ffffffffffffffffffffffffffffffffffffffff16036107af576040517f08c379a00000000000000000000000000000000000000000000000000000000081526004016107a690611304565b60405180910390fd5b6040518060a001604052808681526020018573ffffffffffffffffffffffffffffffffffffffff168152602001848152602001838152602001428152506000808673ffffffffffffffffffffffffffffffffffffffff1673ffffffffffffffffffffffffffffffffffffffff168152602001908152602001600020600082015181600001908161083f91906111a1565b5060208201518160010160006101000a81548173ffffffffffffffffffffffffffffffffffffffff021916908373ffffffffffffffffffffffffffffffffffffffff160217905550604082015181600201908161089c91906111a1565b5060608201518160030155608082015181600401559050508373ffffffffffffffffffffffffffffffffffffffff167f66b731ec99b5eced3626da16bfd4e5d2d627e21e634f8b9c66927d77dd47002c868585426040516109009493929190611324565b60405180910390a25050505050565b600060205280600052604060002060009150905080600001805461093290610fc4565b80601f016020809104026020016040519081016040528092919081815260200182805461095e90610fc4565b80156109ab5780601f10610980576101008083540402835291602001916109ab565b820191906000526020600020905b81548152906001019060200180831161098e57829003601f168201915b5050505050908060010160009054906101000a900473ffffffffffffffffffffffffffffffffffffffff16908060020180546109e690610fc4565b80601f0160208091040260200160405190810160405280929190818152602001828054610a1290610fc4565b8015610a5f5780601f10610a3457610100808354040283529160200191610a5f565b820191906000526020600020905b815481529060010190602001808311610a4257829003601f168201915b5050505050908060030154908060040154905085565b508054610a8190610fc4565b6000825580601f10610a935750610ab2565b601f016020900490600052602060002090810190610ab19190610ab5565b5b50565b5b80821115610ace576000816000905550600101610ab6565b5090565b6000604051905090565b600080fd5b600080fd5b600073ffffffffffffffffffffffffffffffffffffffff82169050919050565b6000610b1182610ae6565b9050919050565b610b2181610b06565b8114610b2c57600080fd5b50565b600081359050610b3e81610b18565b92915050565b600060208284031215610b5a57610b59610adc565b5b6000610b6884828501610b2f565b91505092915050565b600081519050919050565b600082825260208201905092915050565b60005b83811015610bab578082015181840152602081019050610b90565b60008484015250505050565b6000601f19601f8301169050919050565b6000610bd382610b71565b610bdd8185610b7c565b9350610bed818560208601610b8d565b610bf681610bb7565b840191505092915050565b610c0a81610b06565b82525050565b6000819050919050565b610c2381610c10565b82525050565b600060a0820190508181036000830152610c438188610bc8565b9050610c526020830187610c01565b8181036040830152610c648186610bc8565b9050610c736060830185610c1a565b610c806080830184610c1a565b9695505050505050565b600080fd5b600080fd5b7f4e487b7100000000000000000000000000000000000000000000000000000000600052604160045260246000fd5b610ccc82610bb7565b810181811067ffffffffffffffff82111715610ceb57610cea610c94565b5b80604052505050565b6000610cfe610ad2565b9050610d0a8282610cc3565b919050565b600067ffffffffffffffff821115610d2a57610d29610c94565b5b610d3382610bb7565b9050602081019050919050565b82818337600083830152505050565b6000610d62610d5d84610d0f565b610cf4565b905082815260208101848484011115610d7e57610d7d610c8f565b5b610d89848285610d40565b509392505050565b600082601f830112610da657610da5610c8a565b5b8135610db6848260208601610d4f565b91505092915050565b610dc881610c10565b8114610dd357600080fd5b50565b600081359050610de581610dbf565b92915050565b60008060008060808587031215610e0557610e04610adc565b5b6000610e1387828801610b2f565b945050602085013567ffffffffffffffff811115610e3457610e33610ae1565b5b610e4087828801610d91565b935050604085013567ffffffffffffffff811115610e6157610e60610ae1565b5b610e6d87828801610d91565b9250506060610e7e87828801610dd6565b91505092959194509250565b60008060008060808587031215610ea457610ea3610adc565b5b600085013567ffffffffffffffff811115610ec257610ec1610ae1565b5b610ece87828801610d91565b9450506020610edf87828801610b2f565b935050604085013567ffffffffffffffff811115610f0057610eff610ae1565b5b610f0c87828801610d91565b9250506060610f1d87828801610dd6565b91505092959194509250565b7f456d706c6f796565206e6f7420666f756e640000000000000000000000000000600082015250565b6000610f5f601283610b7c565b9150610f6a82610f29565b602082019050919050565b60006020820190508181036000830152610f8e81610f52565b9050919050565b7f4e487b7100000000000000000000000000000000000000000000000000000000600052602260045260246000fd5b60006002820490506001821680610fdc57607f821691505b602082108103610fef57610fee610f95565b5b50919050565b60008190508160005260206000209050919050565b60006020601f8301049050919050565b600082821b905092915050565b6000600883026110577fffffffffffffffffffffffffffffffffffffffffffffffffffffffffffffffff8261101a565b611061868361101a565b95508019841693508086168417925050509392505050565b6000819050919050565b600061109e61109961109484610c10565b611079565b610c10565b9050919050565b6000819050919050565b6110b883611083565b6110cc6110c4826110a5565b848454611027565b825550505050565b600090565b6110e16110d4565b6110ec8184846110af565b505050565b5b81811015611110576111056000826110d9565b6001810190506110f2565b5050565b601f8211156111555761112681610ff5565b61112f8461100a565b8101602085101561113e578190505b61115261114a8561100a565b8301826110f1565b50505b505050565b600082821c905092915050565b60006111786000198460080261115a565b1980831691505092915050565b60006111918383611167565b9150826002028217905092915050565b6111aa82610b71565b67ffffffffffffffff8111156111c3576111c2610c94565b5b6111cd8254610fc4565b6111d8828285611114565b600060209050601f83116001811461120b57600084156111f9578287015190505b6112038582611185565b86555061126b565b601f19841661121986610ff5565b60005b828110156112415784890151825560018201915060208501945060208101905061121c565b8683101561125e578489015161125a601f891682611167565b8355505b6001600288020188555050505b505050505050565b6000606082019050818103600083015261128d8186610bc8565b905081810360208301526112a18185610bc8565b90506112b06040830184610c1a565b949350505050565b7f456d706c6f79656520616c726561647920657869737473000000000000000000600082015250565b60006112ee601783610b7c565b91506112f9826112b8565b602082019050919050565b6000602082019050818103600083015261131d816112e1565b9050919050565b6000608082019050818103600083015261133e8187610bc8565b905081810360208301526113528186610bc8565b90506113616040830185610c1a565b61136e6060830184610c1a565b9594505050505056fea2646970667358221220cd7aa41f83e756d8f1e72f4f3e9e2a4c936ebabb2ed914e023cb1d5df983716c64736f6c63430008130033",
  "linkReferences": {},
  "deployedLinkReferences": {}
}