{
  "_format": "hh-sol-artifact-1",
  "contractName": "CelodevsDetails",
  "sourceName": "contracts/CeloDevDetails.sol",
  "abi": [
    {
      "anonymous": false,
      "inputs": [
        {
          "indexed": false,
          "internalType": "address",
          "name": "walletAddress",
          "type": "address"
        },
        {
          "indexed": false,
          "internalType": "string",
          "name": "name",
          "type": "string"
        },
        {
          "indexed": false,
          "internalType": "string",
          "name": "paymentCurrency",
          "type": "string"
        },
        {
          "indexed": false,
          "internalType": "string",
          "name": "taskDescription",
          "type": "string"
        },
        {
          "indexed": false,
          "internalType": "uint256",
          "name": "rewardAmount",
          "type": "uint256"
        },
        {
          "indexed": false,
          "internalType": "uint256",
          "name": "dateCaptured",
          "type": "uint256"
        }
      ],
      "name": "CelodevDetailsCaptured",
      "type": "event"
    },
    {
      "anonymous": false,
      "inputs": [
        {
          "indexed": true,
          "internalType": "address",
          "name": "owner",
          "type": "address"
        },
        {
          "indexed": true,
          "internalType": "uint256",
          "name": "index",
          "type": "uint256"
        }
      ],
      "name": "CelodevDetailsDeleted",
      "type": "event"
    },
    {
      "anonymous": false,
      "inputs": [
        {
          "indexed": false,
          "internalType": "address",
          "name": "walletAddress",
          "type": "address"
        },
        {
          "indexed": false,
          "internalType": "string",
          "name": "name",
          "type": "string"
        },
        {
          "indexed": false,
          "internalType": "string",
          "name": "paymentCurrency",
          "type": "string"
        },
        {
          "indexed": false,
          "internalType": "string",
          "name": "taskDescription",
          "type": "string"
        },
        {
          "indexed": false,
          "internalType": "uint256",
          "name": "rewardAmount",
          "type": "uint256"
        }
      ],
      "name": "CelodevDetailsUpdated",
      "type": "event"
    },
    {
      "inputs": [
        {
          "internalType": "string",
          "name": "_name",
          "type": "string"
        },
        {
          "internalType": "address",
          "name": "_walletAddress",
          "type": "address"
        },
        {
          "internalType": "string",
          "name": "_paymentCurrency",
          "type": "string"
        },
        {
          "internalType": "string",
          "name": "_taskDescription",
          "type": "string"
        },
        {
          "internalType": "uint256",
          "name": "_rewardAmount",
          "type": "uint256"
        }
      ],
      "name": "captureCelodevDetails",
      "outputs": [],
      "stateMutability": "nonpayable",
      "type": "function"
    },
    {
      "inputs": [
        {
          "internalType": "uint256",
          "name": "_index",
          "type": "uint256"
        }
      ],
      "name": "deleteCelodevDetails",
      "outputs": [],
      "stateMutability": "nonpayable",
      "type": "function"
    },
    {
      "inputs": [
        {
          "internalType": "uint256",
          "name": "_index",
          "type": "uint256"
        }
      ],
      "name": "getCelodevDetails",
      "outputs": [
        {
          "internalType": "address payable",
          "name": "owner",
          "type": "address"
        },
        {
          "internalType": "string",
          "name": "name",
          "type": "string"
        },
        {
          "internalType": "address",
          "name": "walletAddress",
          "type": "address"
        },
        {
          "internalType": "string",
          "name": "paymentCurrency",
          "type": "string"
        },
        {
          "internalType": "string",
          "name": "taskDescription",
          "type": "string"
        },
        {
          "internalType": "uint256",
          "name": "rewardAmount",
          "type": "uint256"
        },
        {
          "internalType": "uint256",
          "name": "dateCaptured",
          "type": "uint256"
        }
      ],
      "stateMutability": "view",
      "type": "function"
    },
    {
      "inputs": [
        {
          "internalType": "address",
          "name": "user",
          "type": "address"
        }
      ],
      "name": "getNumberOfCelodevs",
      "outputs": [
        {
          "internalType": "uint256",
          "name": "",
          "type": "uint256"
        }
      ],
      "stateMutability": "view",
      "type": "function"
    },
    {
      "inputs": [
        {
          "internalType": "uint256",
          "name": "_index",
          "type": "uint256"
        },
        {
          "internalType": "address",
          "name": "_walletAddress",
          "type": "address"
        },
        {
          "internalType": "string",
          "name": "_name",
          "type": "string"
        },
        {
          "internalType": "string",
          "name": "_paymentCurrency",
          "type": "string"
        },
        {
          "internalType": "string",
          "name": "_taskDescription",
          "type": "string"
        },
        {
          "internalType": "uint256",
          "name": "_rewardAmount",
          "type": "uint256"
        }
      ],
      "name": "updateCelodevDetails",
      "outputs": [],
      "stateMutability": "nonpayable",
      "type": "function"
    }
  ],
  "bytecode": "0x608060405234801561001057600080fd5b50611a9f806100206000396000f3fe608060405234801561001057600080fd5b50600436106100575760003560e01c806345e927731461005c5780636fe69bad1461008c578063a126c37b146100a8578063d83fb41f146100c4578063e01dd0f8146100fa575b600080fd5b61007660048036038101906100719190610eb6565b610116565b6040516100839190610efc565b60405180910390f35b6100a660048036038101906100a19190611089565b61015f565b005b6100c260048036038101906100bd919061116a565b6103ff565b005b6100de60048036038101906100d99190611239565b610648565b6040516100f19796959493929190611315565b60405180910390f35b610114600480360381019061010f9190611239565b6109f7565b005b6000600160008373ffffffffffffffffffffffffffffffffffffffff1673ffffffffffffffffffffffffffffffffffffffff168152602001908152602001600020549050919050565b85600160003373ffffffffffffffffffffffffffffffffffffffff1673ffffffffffffffffffffffffffffffffffffffff1681526020019081526020016000205481106101e1576040517f08c379a00000000000000000000000000000000000000000000000000000000081526004016101d8906113e5565b60405180910390fd5b863373ffffffffffffffffffffffffffffffffffffffff166000803373ffffffffffffffffffffffffffffffffffffffff1673ffffffffffffffffffffffffffffffffffffffff168152602001908152602001600020828154811061024957610248611405565b5b906000526020600020906007020160000160009054906101000a900473ffffffffffffffffffffffffffffffffffffffff1673ffffffffffffffffffffffffffffffffffffffff16146102d1576040517f08c379a00000000000000000000000000000000000000000000000000000000081526004016102c8906114a6565b60405180910390fd5b60008060003373ffffffffffffffffffffffffffffffffffffffff1673ffffffffffffffffffffffffffffffffffffffff168152602001908152602001600020898154811061032357610322611405565b5b906000526020600020906007020190508681600101908161034491906116d2565b50878160020160006101000a81548173ffffffffffffffffffffffffffffffffffffffff021916908373ffffffffffffffffffffffffffffffffffffffff1602179055508581600301908161039991906116d2565b50848160040190816103ab91906116d2565b508381600501819055507f52663cbb6c7d1dbcdf76e253076f87970abf5445f993979a6b88c8bbebba1f2188888888886040516103ec9594939291906117a4565b60405180910390a1505050505050505050565b6000803373ffffffffffffffffffffffffffffffffffffffff1673ffffffffffffffffffffffffffffffffffffffff1681526020019081526020016000206040518060e001604052803373ffffffffffffffffffffffffffffffffffffffff1681526020018781526020018673ffffffffffffffffffffffffffffffffffffffff16815260200185815260200184815260200183815260200142815250908060018154018082558091505060019003906000526020600020906007020160009091909190915060008201518160000160006101000a81548173ffffffffffffffffffffffffffffffffffffffff021916908373ffffffffffffffffffffffffffffffffffffffff160217905550602082015181600101908161052191906116d2565b5060408201518160020160006101000a81548173ffffffffffffffffffffffffffffffffffffffff021916908373ffffffffffffffffffffffffffffffffffffffff160217905550606082015181600301908161057e91906116d2565b50608082015181600401908161059491906116d2565b5060a0820151816005015560c082015181600601555050600160003373ffffffffffffffffffffffffffffffffffffffff1673ffffffffffffffffffffffffffffffffffffffff16815260200190815260200160002060008154809291906105fb9061183b565b91905055507fc432a10ecb527544202857430cc76da72b60901837b7127e920e690a06a767e184868585854260405161063996959493929190611883565b60405180910390a15050505050565b60006060600060608060008087600160003373ffffffffffffffffffffffffffffffffffffffff1673ffffffffffffffffffffffffffffffffffffffff1681526020019081526020016000205481106106d6576040517f08c379a00000000000000000000000000000000000000000000000000000000081526004016106cd906113e5565b60405180910390fd5b60008060003373ffffffffffffffffffffffffffffffffffffffff1673ffffffffffffffffffffffffffffffffffffffff1681526020019081526020016000208a8154811061072857610727611405565b5b90600052602060002090600702016040518060e00160405290816000820160009054906101000a900473ffffffffffffffffffffffffffffffffffffffff1673ffffffffffffffffffffffffffffffffffffffff1673ffffffffffffffffffffffffffffffffffffffff1681526020016001820180546107a7906114f5565b80601f01602080910402602001604051908101604052809291908181526020018280546107d3906114f5565b80156108205780601f106107f557610100808354040283529160200191610820565b820191906000526020600020905b81548152906001019060200180831161080357829003601f168201915b505050505081526020016002820160009054906101000a900473ffffffffffffffffffffffffffffffffffffffff1673ffffffffffffffffffffffffffffffffffffffff1673ffffffffffffffffffffffffffffffffffffffff16815260200160038201805461088f906114f5565b80601f01602080910402602001604051908101604052809291908181526020018280546108bb906114f5565b80156109085780601f106108dd57610100808354040283529160200191610908565b820191906000526020600020905b8154815290600101906020018083116108eb57829003601f168201915b50505050508152602001600482018054610921906114f5565b80601f016020809104026020016040519081016040528092919081815260200182805461094d906114f5565b801561099a5780601f1061096f5761010080835404028352916020019161099a565b820191906000526020600020905b81548152906001019060200180831161097d57829003601f168201915b50505050508152602001600582015481526020016006820154815250509050806000015181602001518260400151836060015184608001518560a001518660c0015198509850985098509850985098505050919395979092949650565b80600160003373ffffffffffffffffffffffffffffffffffffffff1673ffffffffffffffffffffffffffffffffffffffff168152602001908152602001600020548110610a79576040517f08c379a0000000000000000000000000000000000000000000000000000000008152600401610a70906113e5565b60405180910390fd5b813373ffffffffffffffffffffffffffffffffffffffff166000803373ffffffffffffffffffffffffffffffffffffffff1673ffffffffffffffffffffffffffffffffffffffff1681526020019081526020016000208281548110610ae157610ae0611405565b5b906000526020600020906007020160000160009054906101000a900473ffffffffffffffffffffffffffffffffffffffff1673ffffffffffffffffffffffffffffffffffffffff1614610b69576040517f08c379a0000000000000000000000000000000000000000000000000000000008152600401610b60906114a6565b60405180910390fd5b600060018060003373ffffffffffffffffffffffffffffffffffffffff1673ffffffffffffffffffffffffffffffffffffffff16815260200190815260200160002054610bb691906118f9565b905060008060003373ffffffffffffffffffffffffffffffffffffffff1673ffffffffffffffffffffffffffffffffffffffff1681526020019081526020016000208281548110610c0a57610c09611405565b5b9060005260206000209060070201905060008060003373ffffffffffffffffffffffffffffffffffffffff1673ffffffffffffffffffffffffffffffffffffffff1681526020019081526020016000208681548110610c6c57610c6b611405565b5b9060005260206000209060070201905081600101816001019081610c909190611958565b508160020160009054906101000a900473ffffffffffffffffffffffffffffffffffffffff168160020160006101000a81548173ffffffffffffffffffffffffffffffffffffffff021916908373ffffffffffffffffffffffffffffffffffffffff16021790555081600301816003019081610d0c9190611958565b5081600401816003019081610d219190611958565b5081600501548160050181905550816006015481600601819055508160000160009054906101000a900473ffffffffffffffffffffffffffffffffffffffff168160000160006101000a81548173ffffffffffffffffffffffffffffffffffffffff021916908373ffffffffffffffffffffffffffffffffffffffff160217905550600160003373ffffffffffffffffffffffffffffffffffffffff1673ffffffffffffffffffffffffffffffffffffffff1681526020019081526020016000206000815480929190610df390611a40565b9190505550853373ffffffffffffffffffffffffffffffffffffffff167ffba88b91f6200a154126492eb87b597f3a915ca27b7f6dfca5a3e05c2c8a9f2d60405160405180910390a3505050505050565b6000604051905090565b600080fd5b600080fd5b600073ffffffffffffffffffffffffffffffffffffffff82169050919050565b6000610e8382610e58565b9050919050565b610e9381610e78565b8114610e9e57600080fd5b50565b600081359050610eb081610e8a565b92915050565b600060208284031215610ecc57610ecb610e4e565b5b6000610eda84828501610ea1565b91505092915050565b6000819050919050565b610ef681610ee3565b82525050565b6000602082019050610f116000830184610eed565b92915050565b610f2081610ee3565b8114610f2b57600080fd5b50565b600081359050610f3d81610f17565b92915050565b600080fd5b600080fd5b6000601f19601f8301169050919050565b7f4e487b7100000000000000000000000000000000000000000000000000000000600052604160045260246000fd5b610f9682610f4d565b810181811067ffffffffffffffff82111715610fb557610fb4610f5e565b5b80604052505050565b6000610fc8610e44565b9050610fd48282610f8d565b919050565b600067ffffffffffffffff821115610ff457610ff3610f5e565b5b610ffd82610f4d565b9050602081019050919050565b82818337600083830152505050565b600061102c61102784610fd9565b610fbe565b90508281526020810184848401111561104857611047610f48565b5b61105384828561100a565b509392505050565b600082601f8301126110705761106f610f43565b5b8135611080848260208601611019565b91505092915050565b60008060008060008060c087890312156110a6576110a5610e4e565b5b60006110b489828a01610f2e565b96505060206110c589828a01610ea1565b955050604087013567ffffffffffffffff8111156110e6576110e5610e53565b5b6110f289828a0161105b565b945050606087013567ffffffffffffffff81111561111357611112610e53565b5b61111f89828a0161105b565b935050608087013567ffffffffffffffff8111156111405761113f610e53565b5b61114c89828a0161105b565b92505060a061115d89828a01610f2e565b9150509295509295509295565b600080600080600060a0868803121561118657611185610e4e565b5b600086013567ffffffffffffffff8111156111a4576111a3610e53565b5b6111b08882890161105b565b95505060206111c188828901610ea1565b945050604086013567ffffffffffffffff8111156111e2576111e1610e53565b5b6111ee8882890161105b565b935050606086013567ffffffffffffffff81111561120f5761120e610e53565b5b61121b8882890161105b565b925050608061122c88828901610f2e565b9150509295509295909350565b60006020828403121561124f5761124e610e4e565b5b600061125d84828501610f2e565b91505092915050565b600061127182610e58565b9050919050565b61128181611266565b82525050565b600081519050919050565b600082825260208201905092915050565b60005b838110156112c15780820151818401526020810190506112a6565b60008484015250505050565b60006112d882611287565b6112e28185611292565b93506112f28185602086016112a3565b6112fb81610f4d565b840191505092915050565b61130f81610e78565b82525050565b600060e08201905061132a600083018a611278565b818103602083015261133c81896112cd565b905061134b6040830188611306565b818103606083015261135d81876112cd565b9050818103608083015261137181866112cd565b905061138060a0830185610eed565b61138d60c0830184610eed565b98975050505050505050565b7f496e76616c69642043656c6f64657620696e6465780000000000000000000000600082015250565b60006113cf601583611292565b91506113da82611399565b602082019050919050565b600060208201905081810360008301526113fe816113c2565b9050919050565b7f4e487b7100000000000000000000000000000000000000000000000000000000600052603260045260246000fd5b7f596f7520617265206e6f7420617574686f72697a656420746f20706572666f7260008201527f6d207468697320616374696f6e00000000000000000000000000000000000000602082015250565b6000611490602d83611292565b915061149b82611434565b604082019050919050565b600060208201905081810360008301526114bf81611483565b9050919050565b7f4e487b7100000000000000000000000000000000000000000000000000000000600052602260045260246000fd5b6000600282049050600182168061150d57607f821691505b6020821081036115205761151f6114c6565b5b50919050565b60008190508160005260206000209050919050565b60006020601f8301049050919050565b600082821b905092915050565b6000600883026115887fffffffffffffffffffffffffffffffffffffffffffffffffffffffffffffffff8261154b565b611592868361154b565b95508019841693508086168417925050509392505050565b6000819050919050565b60006115cf6115ca6115c584610ee3565b6115aa565b610ee3565b9050919050565b6000819050919050565b6115e9836115b4565b6115fd6115f5826115d6565b848454611558565b825550505050565b600090565b611612611605565b61161d8184846115e0565b505050565b5b818110156116415761163660008261160a565b600181019050611623565b5050565b601f8211156116865761165781611526565b6116608461153b565b8101602085101561166f578190505b61168361167b8561153b565b830182611622565b50505b505050565b600082821c905092915050565b60006116a96000198460080261168b565b1980831691505092915050565b60006116c28383611698565b9150826002028217905092915050565b6116db82611287565b67ffffffffffffffff8111156116f4576116f3610f5e565b5b6116fe82546114f5565b611709828285611645565b600060209050601f83116001811461173c576000841561172a578287015190505b61173485826116b6565b86555061179c565b601f19841661174a86611526565b60005b828110156117725784890151825560018201915060208501945060208101905061174d565b8683101561178f578489015161178b601f891682611698565b8355505b6001600288020188555050505b505050505050565b600060a0820190506117b96000830188611306565b81810360208301526117cb81876112cd565b905081810360408301526117df81866112cd565b905081810360608301526117f381856112cd565b90506118026080830184610eed565b9695505050505050565b7f4e487b7100000000000000000000000000000000000000000000000000000000600052601160045260246000fd5b600061184682610ee3565b91507fffffffffffffffffffffffffffffffffffffffffffffffffffffffffffffffff82036118785761187761180c565b5b600182019050919050565b600060c0820190506118986000830189611306565b81810360208301526118aa81886112cd565b905081810360408301526118be81876112cd565b905081810360608301526118d281866112cd565b90506118e16080830185610eed565b6118ee60a0830184610eed565b979650505050505050565b600061190482610ee3565b915061190f83610ee3565b92508282039050818111156119275761192661180c565b5b92915050565b60008154905061193c816114f5565b9050919050565b60008190508160005260206000209050919050565b818103611966575050611a3e565b61196f8261192d565b67ffffffffffffffff81111561198857611987610f5e565b5b61199282546114f5565b61199d828285611645565b6000601f8311600181146119cc57600084156119ba578287015490505b6119c485826116b6565b865550611a37565b601f1984166119da87611943565b96506119e586611526565b60005b82811015611a0d578489015482556001820191506001850194506020810190506119e8565b86831015611a2a5784890154611a26601f891682611698565b8355505b6001600288020188555050505b5050505050505b565b6000611a4b82610ee3565b915060008203611a5e57611a5d61180c565b5b60018203905091905056fea264697066735822122057226b2073b96780060887a1c8d6535a855dd6c96c03912d32f30ac59f32037164736f6c63430008130033",
  "linkReferences": {},
  "deployedLinkReferences": {}
}