{
  "_format": "hh-sol-artifact-1",
  "contractName": "EmployeeDetails",
  "sourceName": "contracts/EmployeeDetails.sol",
  "abi": [
    {
      "anonymous": false,
      "inputs": [
        {
          "indexed": true,
          "internalType": "address",
          "name": "walletAddress",
          "type": "address"
        },
        {
          "indexed": false,
          "internalType": "string",
          "name": "name",
          "type": "string"
        },
        {
          "indexed": false,
          "internalType": "string",
          "name": "paymentMethod",
          "type": "string"
        },
        {
          "indexed": false,
          "internalType": "uint256",
          "name": "salary",
          "type": "uint256"
        },
        {
          "indexed": false,
          "internalType": "uint256",
          "name": "dateCaptured",
          "type": "uint256"
        }
      ],
      "name": "EmployeeDetailsCaptured",
      "type": "event"
    },
    {
      "anonymous": false,
      "inputs": [
        {
          "indexed": true,
          "internalType": "address",
          "name": "walletAddress",
          "type": "address"
        }
      ],
      "name": "EmployeeDetailsDeleted",
      "type": "event"
    },
    {
      "anonymous": false,
      "inputs": [
        {
          "indexed": true,
          "internalType": "address",
          "name": "walletAddress",
          "type": "address"
        },
        {
          "indexed": false,
          "internalType": "string",
          "name": "name",
          "type": "string"
        },
        {
          "indexed": false,
          "internalType": "string",
          "name": "paymentMethod",
          "type": "string"
        },
        {
          "indexed": false,
          "internalType": "uint256",
          "name": "salary",
          "type": "uint256"
        }
      ],
      "name": "EmployeeDetailsUpdated",
      "type": "event"
    },
    {
      "inputs": [
        {
          "internalType": "uint256",
          "name": "",
          "type": "uint256"
        }
      ],
      "name": "addressList",
      "outputs": [
        {
          "internalType": "address",
          "name": "",
          "type": "address"
        }
      ],
      "stateMutability": "view",
      "type": "function"
    },
    {
      "inputs": [
        {
          "internalType": "string",
          "name": "_name",
          "type": "string"
        },
        {
          "internalType": "address",
          "name": "_walletAddress",
          "type": "address"
        },
        {
          "internalType": "string",
          "name": "_paymentMethod",
          "type": "string"
        },
        {
          "internalType": "uint256",
          "name": "_salary",
          "type": "uint256"
        }
      ],
      "name": "captureEmployeeDetails",
      "outputs": [],
      "stateMutability": "nonpayable",
      "type": "function"
    },
    {
      "inputs": [
        {
          "internalType": "address",
          "name": "_walletAddress",
          "type": "address"
        }
      ],
      "name": "deleteEmployeeDetails",
      "outputs": [],
      "stateMutability": "nonpayable",
      "type": "function"
    },
    {
      "inputs": [
        {
          "internalType": "address",
          "name": "",
          "type": "address"
        }
      ],
      "name": "employees",
      "outputs": [
        {
          "internalType": "string",
          "name": "name",
          "type": "string"
        },
        {
          "internalType": "address",
          "name": "walletAddress",
          "type": "address"
        },
        {
          "internalType": "string",
          "name": "paymentMethod",
          "type": "string"
        },
        {
          "internalType": "uint256",
          "name": "salary",
          "type": "uint256"
        },
        {
          "internalType": "uint256",
          "name": "dateCaptured",
          "type": "uint256"
        }
      ],
      "stateMutability": "view",
      "type": "function"
    },
    {
      "inputs": [],
      "name": "getEmployeeCount",
      "outputs": [
        {
          "internalType": "uint256",
          "name": "",
          "type": "uint256"
        }
      ],
      "stateMutability": "view",
      "type": "function"
    },
    {
      "inputs": [
        {
          "internalType": "address",
          "name": "_walletAddress",
          "type": "address"
        }
      ],
      "name": "getEmployeeDetails",
      "outputs": [
        {
          "internalType": "string",
          "name": "",
          "type": "string"
        },
        {
          "internalType": "address",
          "name": "",
          "type": "address"
        },
        {
          "internalType": "string",
          "name": "",
          "type": "string"
        },
        {
          "internalType": "uint256",
          "name": "",
          "type": "uint256"
        },
        {
          "internalType": "uint256",
          "name": "",
          "type": "uint256"
        }
      ],
      "stateMutability": "view",
      "type": "function"
    },
    {
      "inputs": [
        {
          "internalType": "address",
          "name": "_walletAddress",
          "type": "address"
        },
        {
          "internalType": "string",
          "name": "_name",
          "type": "string"
        },
        {
          "internalType": "string",
          "name": "_paymentMethod",
          "type": "string"
        },
        {
          "internalType": "uint256",
          "name": "_salary",
          "type": "uint256"
        }
      ],
      "name": "updateEmployeeDetails",
      "outputs": [],
      "stateMutability": "nonpayable",
      "type": "function"
    }
  ],
  "bytecode": "0x608060405234801561001057600080fd5b506114d0806100206000396000f3fe608060405234801561001057600080fd5b506004361061007d5760003560e01c806394f1f6d11161005b57806394f1f6d1146100ee578063b810fb431461010a578063c2a63e3b1461013a578063d0678947146101585761007d565b80631caafcf1146100825780631ecf0dfe146100b6578063655c5823146100d2575b600080fd5b61009c60048036038101906100979190610c04565b61018c565b6040516100ad959493929190610ce9565b60405180910390f35b6100d060048036038101906100cb9190610eab565b61040b565b005b6100ec60048036038101906100e79190610c04565b6105a4565b005b61010860048036038101906101039190610f4a565b610753565b005b610124600480360381019061011f9190610fe9565b610983565b6040516101319190611016565b60405180910390f35b6101426109c2565b60405161014f9190611031565b60405180910390f35b610172600480360381019061016d9190610c04565b6109cf565b604051610183959493929190610ce9565b60405180910390f35b606060006060600080858073ffffffffffffffffffffffffffffffffffffffff166000808373ffffffffffffffffffffffffffffffffffffffff1673ffffffffffffffffffffffffffffffffffffffff16815260200190815260200160002060010160009054906101000a900473ffffffffffffffffffffffffffffffffffffffff1673ffffffffffffffffffffffffffffffffffffffff1614610265576040517f08c379a000000000000000000000000000000000000000000000000000000000815260040161025c90611098565b60405180910390fd5b60008060008973ffffffffffffffffffffffffffffffffffffffff1673ffffffffffffffffffffffffffffffffffffffff1681526020019081526020016000209050806000018160010160009054906101000a900473ffffffffffffffffffffffffffffffffffffffff1682600201836003015484600401548480546102ea906110e7565b80601f0160208091040260200160405190810160405280929190818152602001828054610316906110e7565b80156103635780601f1061033857610100808354040283529160200191610363565b820191906000526020600020905b81548152906001019060200180831161034657829003601f168201915b50505050509450828054610376906110e7565b80601f01602080910402602001604051908101604052809291908181526020018280546103a2906110e7565b80156103ef5780601f106103c4576101008083540402835291602001916103ef565b820191906000526020600020905b8154815290600101906020018083116103d257829003601f168201915b5050505050925096509650965096509650505091939590929450565b838073ffffffffffffffffffffffffffffffffffffffff166000808373ffffffffffffffffffffffffffffffffffffffff1673ffffffffffffffffffffffffffffffffffffffff16815260200190815260200160002060010160009054906101000a900473ffffffffffffffffffffffffffffffffffffffff1673ffffffffffffffffffffffffffffffffffffffff16146104db576040517f08c379a00000000000000000000000000000000000000000000000000000000081526004016104d290611098565b60405180910390fd5b60008060008773ffffffffffffffffffffffffffffffffffffffff1673ffffffffffffffffffffffffffffffffffffffff16815260200190815260200160002090508481600001908161052e91906112c4565b508381600201908161054091906112c4565b508281600301819055508573ffffffffffffffffffffffffffffffffffffffff167ffb6139c8c65ba496efcf7e7e222bc9a9a54affd767c9abb2abfc88ca26d8ec6486868660405161059493929190611396565b60405180910390a2505050505050565b808073ffffffffffffffffffffffffffffffffffffffff166000808373ffffffffffffffffffffffffffffffffffffffff1673ffffffffffffffffffffffffffffffffffffffff16815260200190815260200160002060010160009054906101000a900473ffffffffffffffffffffffffffffffffffffffff1673ffffffffffffffffffffffffffffffffffffffff1614610674576040517f08c379a000000000000000000000000000000000000000000000000000000000815260040161066b90611098565b60405180910390fd5b6000808373ffffffffffffffffffffffffffffffffffffffff1673ffffffffffffffffffffffffffffffffffffffff168152602001908152602001600020600080820160006106c39190610b35565b6001820160006101000a81549073ffffffffffffffffffffffffffffffffffffffff02191690556002820160006106fa9190610b35565b6003820160009055600482016000905550508173ffffffffffffffffffffffffffffffffffffffff167fcd5029461ca297de51e0adb81098f41275518e50df56175648d52ce89169457160405160405180910390a25050565b828073ffffffffffffffffffffffffffffffffffffffff166000808373ffffffffffffffffffffffffffffffffffffffff1673ffffffffffffffffffffffffffffffffffffffff16815260200190815260200160002060010160009054906101000a900473ffffffffffffffffffffffffffffffffffffffff1673ffffffffffffffffffffffffffffffffffffffff1603610823576040517f08c379a000000000000000000000000000000000000000000000000000000000815260040161081a90611427565b60405180910390fd5b6040518060a001604052808681526020018573ffffffffffffffffffffffffffffffffffffffff168152602001848152602001838152602001428152506000808673ffffffffffffffffffffffffffffffffffffffff1673ffffffffffffffffffffffffffffffffffffffff16815260200190815260200160002060008201518160000190816108b391906112c4565b5060208201518160010160006101000a81548173ffffffffffffffffffffffffffffffffffffffff021916908373ffffffffffffffffffffffffffffffffffffffff160217905550604082015181600201908161091091906112c4565b5060608201518160030155608082015181600401559050508373ffffffffffffffffffffffffffffffffffffffff167f66b731ec99b5eced3626da16bfd4e5d2d627e21e634f8b9c66927d77dd47002c868585426040516109749493929190611447565b60405180910390a25050505050565b6001818154811061099357600080fd5b906000526020600020016000915054906101000a900473ffffffffffffffffffffffffffffffffffffffff1681565b6000600180549050905090565b60006020528060005260406000206000915090508060000180546109f2906110e7565b80601f0160208091040260200160405190810160405280929190818152602001828054610a1e906110e7565b8015610a6b5780601f10610a4057610100808354040283529160200191610a6b565b820191906000526020600020905b815481529060010190602001808311610a4e57829003601f168201915b5050505050908060010160009054906101000a900473ffffffffffffffffffffffffffffffffffffffff1690806002018054610aa6906110e7565b80601f0160208091040260200160405190810160405280929190818152602001828054610ad2906110e7565b8015610b1f5780601f10610af457610100808354040283529160200191610b1f565b820191906000526020600020905b815481529060010190602001808311610b0257829003601f168201915b5050505050908060030154908060040154905085565b508054610b41906110e7565b6000825580601f10610b535750610b72565b601f016020900490600052602060002090810190610b719190610b75565b5b50565b5b80821115610b8e576000816000905550600101610b76565b5090565b6000604051905090565b600080fd5b600080fd5b600073ffffffffffffffffffffffffffffffffffffffff82169050919050565b6000610bd182610ba6565b9050919050565b610be181610bc6565b8114610bec57600080fd5b50565b600081359050610bfe81610bd8565b92915050565b600060208284031215610c1a57610c19610b9c565b5b6000610c2884828501610bef565b91505092915050565b600081519050919050565b600082825260208201905092915050565b60005b83811015610c6b578082015181840152602081019050610c50565b60008484015250505050565b6000601f19601f8301169050919050565b6000610c9382610c31565b610c9d8185610c3c565b9350610cad818560208601610c4d565b610cb681610c77565b840191505092915050565b610cca81610bc6565b82525050565b6000819050919050565b610ce381610cd0565b82525050565b600060a0820190508181036000830152610d038188610c88565b9050610d126020830187610cc1565b8181036040830152610d248186610c88565b9050610d336060830185610cda565b610d406080830184610cda565b9695505050505050565b600080fd5b600080fd5b7f4e487b7100000000000000000000000000000000000000000000000000000000600052604160045260246000fd5b610d8c82610c77565b810181811067ffffffffffffffff82111715610dab57610daa610d54565b5b80604052505050565b6000610dbe610b92565b9050610dca8282610d83565b919050565b600067ffffffffffffffff821115610dea57610de9610d54565b5b610df382610c77565b9050602081019050919050565b82818337600083830152505050565b6000610e22610e1d84610dcf565b610db4565b905082815260208101848484011115610e3e57610e3d610d4f565b5b610e49848285610e00565b509392505050565b600082601f830112610e6657610e65610d4a565b5b8135610e76848260208601610e0f565b91505092915050565b610e8881610cd0565b8114610e9357600080fd5b50565b600081359050610ea581610e7f565b92915050565b60008060008060808587031215610ec557610ec4610b9c565b5b6000610ed387828801610bef565b945050602085013567ffffffffffffffff811115610ef457610ef3610ba1565b5b610f0087828801610e51565b935050604085013567ffffffffffffffff811115610f2157610f20610ba1565b5b610f2d87828801610e51565b9250506060610f3e87828801610e96565b91505092959194509250565b60008060008060808587031215610f6457610f63610b9c565b5b600085013567ffffffffffffffff811115610f8257610f81610ba1565b5b610f8e87828801610e51565b9450506020610f9f87828801610bef565b935050604085013567ffffffffffffffff811115610fc057610fbf610ba1565b5b610fcc87828801610e51565b9250506060610fdd87828801610e96565b91505092959194509250565b600060208284031215610fff57610ffe610b9c565b5b600061100d84828501610e96565b91505092915050565b600060208201905061102b6000830184610cc1565b92915050565b60006020820190506110466000830184610cda565b92915050565b7f456d706c6f796565206e6f7420666f756e640000000000000000000000000000600082015250565b6000611082601283610c3c565b915061108d8261104c565b602082019050919050565b600060208201905081810360008301526110b181611075565b9050919050565b7f4e487b7100000000000000000000000000000000000000000000000000000000600052602260045260246000fd5b600060028204905060018216806110ff57607f821691505b602082108103611112576111116110b8565b5b50919050565b60008190508160005260206000209050919050565b60006020601f8301049050919050565b600082821b905092915050565b60006008830261117a7fffffffffffffffffffffffffffffffffffffffffffffffffffffffffffffffff8261113d565b611184868361113d565b95508019841693508086168417925050509392505050565b6000819050919050565b60006111c16111bc6111b784610cd0565b61119c565b610cd0565b9050919050565b6000819050919050565b6111db836111a6565b6111ef6111e7826111c8565b84845461114a565b825550505050565b600090565b6112046111f7565b61120f8184846111d2565b505050565b5b81811015611233576112286000826111fc565b600181019050611215565b5050565b601f8211156112785761124981611118565b6112528461112d565b81016020851015611261578190505b61127561126d8561112d565b830182611214565b50505b505050565b600082821c905092915050565b600061129b6000198460080261127d565b1980831691505092915050565b60006112b4838361128a565b9150826002028217905092915050565b6112cd82610c31565b67ffffffffffffffff8111156112e6576112e5610d54565b5b6112f082546110e7565b6112fb828285611237565b600060209050601f83116001811461132e576000841561131c578287015190505b61132685826112a8565b86555061138e565b601f19841661133c86611118565b60005b828110156113645784890151825560018201915060208501945060208101905061133f565b86831015611381578489015161137d601f89168261128a565b8355505b6001600288020188555050505b505050505050565b600060608201905081810360008301526113b08186610c88565b905081810360208301526113c48185610c88565b90506113d36040830184610cda565b949350505050565b7f456d706c6f79656520616c726561647920657869737473000000000000000000600082015250565b6000611411601783610c3c565b915061141c826113db565b602082019050919050565b6000602082019050818103600083015261144081611404565b9050919050565b600060808201905081810360008301526114618187610c88565b905081810360208301526114758186610c88565b90506114846040830185610cda565b6114916060830184610cda565b9594505050505056fea2646970667358221220c05fb126e876dbc50e8fad13bc40b007cfb3526242a6fd6d10e0512a5314468864736f6c63430008130033",
  "linkReferences": {},
  "deployedLinkReferences": {}
}